{
  "_format": "hh-sol-artifact-1",
  "contractName": "RiskPool",
  "sourceName": "contracts/RiskPool.sol",
  "abi": [
    {
      "inputs": [
        {
          "internalType": "address",
          "name": "_stablecoin",
          "type": "address"
        }
      ],
      "stateMutability": "nonpayable",
      "type": "constructor"
    },
    {
      "inputs": [
        {
          "internalType": "address",
          "name": "owner",
          "type": "address"
        }
      ],
      "name": "OwnableInvalidOwner",
      "type": "error"
    },
    {
      "inputs": [
        {
          "internalType": "address",
          "name": "account",
          "type": "address"
        }
      ],
      "name": "OwnableUnauthorizedAccount",
      "type": "error"
    },
    {
      "anonymous": false,
      "inputs": [
        {
          "indexed": false,
          "internalType": "uint256",
          "name": "amount",
          "type": "uint256"
        }
      ],
      "name": "CoverageLocked",
      "type": "event"
    },
    {
      "anonymous": false,
      "inputs": [
        {
          "indexed": false,
          "internalType": "uint256",
          "name": "amount",
          "type": "uint256"
        }
      ],
      "name": "CoverageUnlocked",
      "type": "event"
    },
    {
      "anonymous": false,
      "inputs": [
        {
          "indexed": true,
          "internalType": "address",
          "name": "contributor",
          "type": "address"
        },
        {
          "indexed": false,
          "internalType": "uint256",
          "name": "amount",
          "type": "uint256"
        }
      ],
      "name": "Deposited",
      "type": "event"
    },
    {
      "anonymous": false,
      "inputs": [
        {
          "indexed": true,
          "internalType": "address",
          "name": "previousOwner",
          "type": "address"
        },
        {
          "indexed": true,
          "internalType": "address",
          "name": "newOwner",
          "type": "address"
        }
      ],
      "name": "OwnershipTransferred",
      "type": "event"
    },
    {
      "anonymous": false,
      "inputs": [
        {
          "indexed": true,
          "internalType": "address",
          "name": "to",
          "type": "address"
        },
        {
          "indexed": false,
          "internalType": "uint256",
          "name": "amount",
          "type": "uint256"
        }
      ],
      "name": "Payout",
      "type": "event"
    },
    {
      "inputs": [
        {
          "internalType": "address",
          "name": "",
          "type": "address"
        }
      ],
      "name": "contributions",
      "outputs": [
        {
          "internalType": "uint256",
          "name": "",
          "type": "uint256"
        }
      ],
      "stateMutability": "view",
      "type": "function"
    },
    {
      "inputs": [
        {
          "internalType": "uint256",
          "name": "amount",
          "type": "uint256"
        }
      ],
      "name": "deposit",
      "outputs": [],
      "stateMutability": "nonpayable",
      "type": "function"
    },
    {
      "inputs": [],
      "name": "freeReserve",
      "outputs": [
        {
          "internalType": "uint256",
          "name": "",
          "type": "uint256"
        }
      ],
      "stateMutability": "view",
      "type": "function"
    },
    {
      "inputs": [],
      "name": "getFreeReserve",
      "outputs": [
        {
          "internalType": "uint256",
          "name": "",
          "type": "uint256"
        }
      ],
      "stateMutability": "view",
      "type": "function"
    },
    {
      "inputs": [
        {
          "internalType": "uint256",
          "name": "amount",
          "type": "uint256"
        }
      ],
      "name": "lockCoverage",
      "outputs": [],
      "stateMutability": "nonpayable",
      "type": "function"
    },
    {
      "inputs": [],
      "name": "lockedCoverage",
      "outputs": [
        {
          "internalType": "uint256",
          "name": "",
          "type": "uint256"
        }
      ],
      "stateMutability": "view",
      "type": "function"
    },
    {
      "inputs": [],
      "name": "owner",
      "outputs": [
        {
          "internalType": "address",
          "name": "",
          "type": "address"
        }
      ],
      "stateMutability": "view",
      "type": "function"
    },
    {
      "inputs": [
        {
          "internalType": "address",
          "name": "to",
          "type": "address"
        },
        {
          "internalType": "uint256",
          "name": "amount",
          "type": "uint256"
        }
      ],
      "name": "payout",
      "outputs": [],
      "stateMutability": "nonpayable",
      "type": "function"
    },
    {
      "inputs": [],
      "name": "renounceOwnership",
      "outputs": [],
      "stateMutability": "nonpayable",
      "type": "function"
    },
    {
      "inputs": [],
      "name": "stablecoin",
      "outputs": [
        {
          "internalType": "contract IERC20",
          "name": "",
          "type": "address"
        }
      ],
      "stateMutability": "view",
      "type": "function"
    },
    {
      "inputs": [],
      "name": "totalCapital",
      "outputs": [
        {
          "internalType": "uint256",
          "name": "",
          "type": "uint256"
        }
      ],
      "stateMutability": "view",
      "type": "function"
    },
    {
      "inputs": [
        {
          "internalType": "address",
          "name": "newOwner",
          "type": "address"
        }
      ],
      "name": "transferOwnership",
      "outputs": [],
      "stateMutability": "nonpayable",
      "type": "function"
    },
    {
      "inputs": [
        {
          "internalType": "uint256",
          "name": "amount",
          "type": "uint256"
        }
      ],
      "name": "unlockCoverage",
      "outputs": [],
      "stateMutability": "nonpayable",
      "type": "function"
    }
  ],
  "bytecode": "0x60806040523480156200001157600080fd5b506040516200115a3803806200115a833981810160405281019062000037919062000235565b33600073ffffffffffffffffffffffffffffffffffffffff168173ffffffffffffffffffffffffffffffffffffffff1603620000ad5760006040517f1e4fbdf7000000000000000000000000000000000000000000000000000000008152600401620000a4919062000278565b60405180910390fd5b620000be816200010760201b60201c565b5080600160006101000a81548173ffffffffffffffffffffffffffffffffffffffff021916908373ffffffffffffffffffffffffffffffffffffffff1602179055505062000295565b60008060009054906101000a900473ffffffffffffffffffffffffffffffffffffffff169050816000806101000a81548173ffffffffffffffffffffffffffffffffffffffff021916908373ffffffffffffffffffffffffffffffffffffffff1602179055508173ffffffffffffffffffffffffffffffffffffffff168173ffffffffffffffffffffffffffffffffffffffff167f8be0079c531659141344cd1fd0a4f28419497f9722a3daafe3b4186f6b6457e060405160405180910390a35050565b600080fd5b600073ffffffffffffffffffffffffffffffffffffffff82169050919050565b6000620001fd82620001d0565b9050919050565b6200020f81620001f0565b81146200021b57600080fd5b50565b6000815190506200022f8162000204565b92915050565b6000602082840312156200024e576200024d620001cb565b5b60006200025e848285016200021e565b91505092915050565b6200027281620001f0565b82525050565b60006020820190506200028f600083018462000267565b92915050565b610eb580620002a56000396000f3fe608060405234801561001057600080fd5b50600436106100cf5760003560e01c8063715018a61161008c578063b6b55f2511610066578063b6b55f25146101da578063e2b53aed146101f6578063e9cbd82214610214578063f2fde38b14610232576100cf565b8063715018a614610194578063807ba2e01461019e5780638da5cb5b146101bc576100cf565b8063117de2fd146100d4578063383032ea146100f05780633e2f7eba1461010e57806342e94c901461012a57806349b974c61461015a5780636ccfdbc114610176575b600080fd5b6100ee60048036038101906100e991906109fa565b61024e565b005b6100f86103c0565b6040516101059190610a49565b60405180910390f35b61012860048036038101906101239190610a64565b6103c6565b005b610144600480360381019061013f9190610a91565b61047f565b6040516101519190610a49565b60405180910390f35b610174600480360381019061016f9190610a64565b610497565b005b61017e610550565b60405161018b9190610a49565b60405180910390f35b61019c610556565b005b6101a661056a565b6040516101b39190610a49565b60405180910390f35b6101c4610570565b6040516101d19190610acd565b60405180910390f35b6101f460048036038101906101ef9190610a64565b610599565b005b6101fe610758565b60405161020b9190610a49565b60405180910390f35b61021c610762565b6040516102299190610b47565b60405180910390f35b61024c60048036038101906102479190610a91565b610788565b005b61025661080e565b60035481111561029b576040517f08c379a000000000000000000000000000000000000000000000000000000000815260040161029290610bbf565b60405180910390fd5b80600360008282546102ad9190610c0e565b9250508190555080600260008282546102c69190610c0e565b92505081905550600160009054906101000a900473ffffffffffffffffffffffffffffffffffffffff1673ffffffffffffffffffffffffffffffffffffffff1663a9059cbb83836040518363ffffffff1660e01b815260040161032a929190610c42565b6020604051808303816000875af1158015610349573d6000803e3d6000fd5b505050506040513d601f19601f8201168201806040525081019061036d9190610ca3565b508173ffffffffffffffffffffffffffffffffffffffff167f5afeca38b2064c23a692c4cf353015d80ab3ecc417b4f893f372690c11fbd9a6826040516103b49190610a49565b60405180910390a25050565b60025481565b6103ce61080e565b600454811115610413576040517f08c379a000000000000000000000000000000000000000000000000000000000815260040161040a90610d1c565b60405180910390fd5b80600360008282546104259190610d3c565b92505081905550806004600082825461043e9190610c0e565b925050819055507f8da461cbf84ce9a3cfb3ea951d5a0ebe5130beafdb6a0df75892737405eec6fa816040516104749190610a49565b60405180910390a150565b60056020528060005260406000206000915090505481565b61049f61080e565b6003548111156104e4576040517f08c379a00000000000000000000000000000000000000000000000000000000081526004016104db90610dbc565b60405180910390fd5b80600360008282546104f69190610c0e565b92505081905550806004600082825461050f9190610d3c565b925050819055507f3f5f770bd957dd132fc1e7b86cda09e97da38bdf8f7e7706bb425338f8a546c8816040516105459190610a49565b60405180910390a150565b60035481565b61055e61080e565b6105686000610895565b565b60045481565b60008060009054906101000a900473ffffffffffffffffffffffffffffffffffffffff16905090565b600081116105dc576040517f08c379a00000000000000000000000000000000000000000000000000000000081526004016105d390610e28565b60405180910390fd5b600160009054906101000a900473ffffffffffffffffffffffffffffffffffffffff1673ffffffffffffffffffffffffffffffffffffffff166323b872dd3330846040518463ffffffff1660e01b815260040161063b93929190610e48565b6020604051808303816000875af115801561065a573d6000803e3d6000fd5b505050506040513d601f19601f8201168201806040525081019061067e9190610ca3565b5080600560003373ffffffffffffffffffffffffffffffffffffffff1673ffffffffffffffffffffffffffffffffffffffff16815260200190815260200160002060008282546106ce9190610d3c565b9250508190555080600260008282546106e79190610d3c565b9250508190555080600460008282546107009190610d3c565b925050819055503373ffffffffffffffffffffffffffffffffffffffff167f2da466a7b24304f47e87fa2e1e5a81b9831ce54fec19055ce277ca2f39ba42c48260405161074d9190610a49565b60405180910390a250565b6000600454905090565b600160009054906101000a900473ffffffffffffffffffffffffffffffffffffffff1681565b61079061080e565b600073ffffffffffffffffffffffffffffffffffffffff168173ffffffffffffffffffffffffffffffffffffffff16036108025760006040517f1e4fbdf70000000000000000000000000000000000000000000000000000000081526004016107f99190610acd565b60405180910390fd5b61080b81610895565b50565b610816610959565b73ffffffffffffffffffffffffffffffffffffffff16610834610570565b73ffffffffffffffffffffffffffffffffffffffff161461089357610857610959565b6040517f118cdaa700000000000000000000000000000000000000000000000000000000815260040161088a9190610acd565b60405180910390fd5b565b60008060009054906101000a900473ffffffffffffffffffffffffffffffffffffffff169050816000806101000a81548173ffffffffffffffffffffffffffffffffffffffff021916908373ffffffffffffffffffffffffffffffffffffffff1602179055508173ffffffffffffffffffffffffffffffffffffffff168173ffffffffffffffffffffffffffffffffffffffff167f8be0079c531659141344cd1fd0a4f28419497f9722a3daafe3b4186f6b6457e060405160405180910390a35050565b600033905090565b600080fd5b600073ffffffffffffffffffffffffffffffffffffffff82169050919050565b600061099182610966565b9050919050565b6109a181610986565b81146109ac57600080fd5b50565b6000813590506109be81610998565b92915050565b6000819050919050565b6109d7816109c4565b81146109e257600080fd5b50565b6000813590506109f4816109ce565b92915050565b60008060408385031215610a1157610a10610961565b5b6000610a1f858286016109af565b9250506020610a30858286016109e5565b9150509250929050565b610a43816109c4565b82525050565b6000602082019050610a5e6000830184610a3a565b92915050565b600060208284031215610a7a57610a79610961565b5b6000610a88848285016109e5565b91505092915050565b600060208284031215610aa757610aa6610961565b5b6000610ab5848285016109af565b91505092915050565b610ac781610986565b82525050565b6000602082019050610ae26000830184610abe565b92915050565b6000819050919050565b6000610b0d610b08610b0384610966565b610ae8565b610966565b9050919050565b6000610b1f82610af2565b9050919050565b6000610b3182610b14565b9050919050565b610b4181610b26565b82525050565b6000602082019050610b5c6000830184610b38565b92915050565b600082825260208201905092915050565b7f416d6f756e742065786365656473206c6f636b656420636f7665726167650000600082015250565b6000610ba9601e83610b62565b9150610bb482610b73565b602082019050919050565b60006020820190508181036000830152610bd881610b9c565b9050919050565b7f4e487b7100000000000000000000000000000000000000000000000000000000600052601160045260246000fd5b6000610c19826109c4565b9150610c24836109c4565b9250828203905081811115610c3c57610c3b610bdf565b5b92915050565b6000604082019050610c576000830185610abe565b610c646020830184610a3a565b9392505050565b60008115159050919050565b610c8081610c6b565b8114610c8b57600080fd5b50565b600081519050610c9d81610c77565b92915050565b600060208284031215610cb957610cb8610961565b5b6000610cc784828501610c8e565b91505092915050565b7f4e6f7420656e6f75676820667265652072657365727665000000000000000000600082015250565b6000610d06601783610b62565b9150610d1182610cd0565b602082019050919050565b60006020820190508181036000830152610d3581610cf9565b9050919050565b6000610d47826109c4565b9150610d52836109c4565b9250828201905080821115610d6a57610d69610bdf565b5b92915050565b7f4e6f7420656e6f756768206c6f636b656420636f766572616765000000000000600082015250565b6000610da6601a83610b62565b9150610db182610d70565b602082019050919050565b60006020820190508181036000830152610dd581610d99565b9050919050565b7f416d6f756e74206d757374206265203e20300000000000000000000000000000600082015250565b6000610e12601283610b62565b9150610e1d82610ddc565b602082019050919050565b60006020820190508181036000830152610e4181610e05565b9050919050565b6000606082019050610e5d6000830186610abe565b610e6a6020830185610abe565b610e776040830184610a3a565b94935050505056fea2646970667358221220ecf7a94a8da1bc82007541556cfb084252ebced5973f17bd6fa52c532805018564736f6c63430008140033",
  "linkReferences": {},
  "deployedLinkReferences": {}
}