{
  "_format": "hh-sol-artifact-1",
  "contractName": "PayoutEngine",
  "sourceName": "contracts/PayoutEngine.sol",
  "abi": [
    {
      "inputs": [
        {
          "internalType": "address",
          "name": "_riskPool",
          "type": "address"
        },
        {
          "internalType": "address",
          "name": "_coveragePolicy",
          "type": "address"
        }
      ],
      "stateMutability": "nonpayable",
      "type": "constructor"
    },
    {
      "inputs": [
        {
          "internalType": "address",
          "name": "owner",
          "type": "address"
        }
      ],
      "name": "OwnableInvalidOwner",
      "type": "error"
    },
    {
      "inputs": [
        {
          "internalType": "address",
          "name": "account",
          "type": "address"
        }
      ],
      "name": "OwnableUnauthorizedAccount",
      "type": "error"
    },
    {
      "anonymous": false,
      "inputs": [
        {
          "indexed": true,
          "internalType": "address",
          "name": "previousOwner",
          "type": "address"
        },
        {
          "indexed": true,
          "internalType": "address",
          "name": "newOwner",
          "type": "address"
        }
      ],
      "name": "OwnershipTransferred",
      "type": "event"
    },
    {
      "anonymous": false,
      "inputs": [
        {
          "indexed": false,
          "internalType": "uint256",
          "name": "policyId",
          "type": "uint256"
        },
        {
          "indexed": false,
          "internalType": "address",
          "name": "to",
          "type": "address"
        },
        {
          "indexed": false,
          "internalType": "uint256",
          "name": "amount",
          "type": "uint256"
        }
      ],
      "name": "PayoutExecuted",
      "type": "event"
    },
    {
      "inputs": [],
      "name": "coveragePolicy",
      "outputs": [
        {
          "internalType": "contract CoveragePolicy",
          "name": "",
          "type": "address"
        }
      ],
      "stateMutability": "view",
      "type": "function"
    },
    {
      "inputs": [
        {
          "internalType": "uint256",
          "name": "policyId",
          "type": "uint256"
        },
        {
          "internalType": "address",
          "name": "to",
          "type": "address"
        },
        {
          "internalType": "uint256",
          "name": "amount",
          "type": "uint256"
        }
      ],
      "name": "executePayout",
      "outputs": [],
      "stateMutability": "nonpayable",
      "type": "function"
    },
    {
      "inputs": [],
      "name": "owner",
      "outputs": [
        {
          "internalType": "address",
          "name": "",
          "type": "address"
        }
      ],
      "stateMutability": "view",
      "type": "function"
    },
    {
      "inputs": [],
      "name": "renounceOwnership",
      "outputs": [],
      "stateMutability": "nonpayable",
      "type": "function"
    },
    {
      "inputs": [],
      "name": "riskPool",
      "outputs": [
        {
          "internalType": "contract RiskPool",
          "name": "",
          "type": "address"
        }
      ],
      "stateMutability": "view",
      "type": "function"
    },
    {
      "inputs": [
        {
          "internalType": "address",
          "name": "newOwner",
          "type": "address"
        }
      ],
      "name": "transferOwnership",
      "outputs": [],
      "stateMutability": "nonpayable",
      "type": "function"
    }
  ],
  "bytecode": "0x60806040523480156200001157600080fd5b5060405162000d3a38038062000d3a833981810160405281019062000037919062000277565b33600073ffffffffffffffffffffffffffffffffffffffff168173ffffffffffffffffffffffffffffffffffffffff1603620000ad5760006040517f1e4fbdf7000000000000000000000000000000000000000000000000000000008152600401620000a49190620002cf565b60405180910390fd5b620000be816200014960201b60201c565b5081600160006101000a81548173ffffffffffffffffffffffffffffffffffffffff021916908373ffffffffffffffffffffffffffffffffffffffff16021790555080600260006101000a81548173ffffffffffffffffffffffffffffffffffffffff021916908373ffffffffffffffffffffffffffffffffffffffff1602179055505050620002ec565b60008060009054906101000a900473ffffffffffffffffffffffffffffffffffffffff169050816000806101000a81548173ffffffffffffffffffffffffffffffffffffffff021916908373ffffffffffffffffffffffffffffffffffffffff1602179055508173ffffffffffffffffffffffffffffffffffffffff168173ffffffffffffffffffffffffffffffffffffffff167f8be0079c531659141344cd1fd0a4f28419497f9722a3daafe3b4186f6b6457e060405160405180910390a35050565b600080fd5b600073ffffffffffffffffffffffffffffffffffffffff82169050919050565b60006200023f8262000212565b9050919050565b620002518162000232565b81146200025d57600080fd5b50565b600081519050620002718162000246565b92915050565b600080604083850312156200029157620002906200020d565b5b6000620002a18582860162000260565b9250506020620002b48582860162000260565b9150509250929050565b620002c98162000232565b82525050565b6000602082019050620002e66000830184620002be565b92915050565b610a3e80620002fc6000396000f3fe608060405234801561001057600080fd5b50600436106100625760003560e01c8063715018a6146100675780637ca06380146100715780638da5cb5b1461008d578063c4e5dacf146100ab578063f2fde38b146100c9578063fdeefee8146100e5575b600080fd5b61006f610103565b005b61008b6004803603810190610086919061068e565b610117565b005b6100956103a7565b6040516100a291906106f0565b60405180910390f35b6100b36103d0565b6040516100c0919061076a565b60405180910390f35b6100e360048036038101906100de9190610785565b6103f6565b005b6100ed61047c565b6040516100fa91906107d3565b60405180910390f35b61010b6104a2565b6101156000610529565b565b61011f6104a2565b600260009054906101000a900473ffffffffffffffffffffffffffffffffffffffff1673ffffffffffffffffffffffffffffffffffffffff1663bd8afa46846040518263ffffffff1660e01b815260040161017a91906107fd565b602060405180830381865afa158015610197573d6000803e3d6000fd5b505050506040513d601f19601f820116820180604052508101906101bb9190610850565b6101fa576040517f08c379a00000000000000000000000000000000000000000000000000000000081526004016101f1906108da565b60405180910390fd5b600260009054906101000a900473ffffffffffffffffffffffffffffffffffffffff1673ffffffffffffffffffffffffffffffffffffffff1663e0ec77b5846040518263ffffffff1660e01b815260040161025591906107fd565b602060405180830381865afa158015610272573d6000803e3d6000fd5b505050506040513d601f19601f82011682018060405250810190610296919061090f565b8111156102d8576040517f08c379a00000000000000000000000000000000000000000000000000000000081526004016102cf90610988565b60405180910390fd5b600160009054906101000a900473ffffffffffffffffffffffffffffffffffffffff1673ffffffffffffffffffffffffffffffffffffffff1663117de2fd83836040518363ffffffff1660e01b81526004016103359291906109a8565b600060405180830381600087803b15801561034f57600080fd5b505af1158015610363573d6000803e3d6000fd5b505050507fbeaa99d72a600712e4656a7da04b2cabe31fb50fbf8f5b5f96513b0a4f495c1a83838360405161039a939291906109d1565b60405180910390a1505050565b60008060009054906101000a900473ffffffffffffffffffffffffffffffffffffffff16905090565b600160009054906101000a900473ffffffffffffffffffffffffffffffffffffffff1681565b6103fe6104a2565b600073ffffffffffffffffffffffffffffffffffffffff168173ffffffffffffffffffffffffffffffffffffffff16036104705760006040517f1e4fbdf700000000000000000000000000000000000000000000000000000000815260040161046791906106f0565b60405180910390fd5b61047981610529565b50565b600260009054906101000a900473ffffffffffffffffffffffffffffffffffffffff1681565b6104aa6105ed565b73ffffffffffffffffffffffffffffffffffffffff166104c86103a7565b73ffffffffffffffffffffffffffffffffffffffff1614610527576104eb6105ed565b6040517f118cdaa700000000000000000000000000000000000000000000000000000000815260040161051e91906106f0565b60405180910390fd5b565b60008060009054906101000a900473ffffffffffffffffffffffffffffffffffffffff169050816000806101000a81548173ffffffffffffffffffffffffffffffffffffffff021916908373ffffffffffffffffffffffffffffffffffffffff1602179055508173ffffffffffffffffffffffffffffffffffffffff168173ffffffffffffffffffffffffffffffffffffffff167f8be0079c531659141344cd1fd0a4f28419497f9722a3daafe3b4186f6b6457e060405160405180910390a35050565b600033905090565b600080fd5b6000819050919050565b61060d816105fa565b811461061857600080fd5b50565b60008135905061062a81610604565b92915050565b600073ffffffffffffffffffffffffffffffffffffffff82169050919050565b600061065b82610630565b9050919050565b61066b81610650565b811461067657600080fd5b50565b60008135905061068881610662565b92915050565b6000806000606084860312156106a7576106a66105f5565b5b60006106b58682870161061b565b93505060206106c686828701610679565b92505060406106d78682870161061b565b9150509250925092565b6106ea81610650565b82525050565b600060208201905061070560008301846106e1565b92915050565b6000819050919050565b600061073061072b61072684610630565b61070b565b610630565b9050919050565b600061074282610715565b9050919050565b600061075482610737565b9050919050565b61076481610749565b82525050565b600060208201905061077f600083018461075b565b92915050565b60006020828403121561079b5761079a6105f5565b5b60006107a984828501610679565b91505092915050565b60006107bd82610737565b9050919050565b6107cd816107b2565b82525050565b60006020820190506107e860008301846107c4565b92915050565b6107f7816105fa565b82525050565b600060208201905061081260008301846107ee565b92915050565b60008115159050919050565b61082d81610818565b811461083857600080fd5b50565b60008151905061084a81610824565b92915050565b600060208284031215610866576108656105f5565b5b60006108748482850161083b565b91505092915050565b600082825260208201905092915050565b7f506f6c69637920696e6163746976650000000000000000000000000000000000600082015250565b60006108c4600f8361087d565b91506108cf8261088e565b602082019050919050565b600060208201905081810360008301526108f3816108b7565b9050919050565b60008151905061090981610604565b92915050565b600060208284031215610925576109246105f5565b5b6000610933848285016108fa565b91505092915050565b7f416d6f756e74206578636565647320696e737572656400000000000000000000600082015250565b600061097260168361087d565b915061097d8261093c565b602082019050919050565b600060208201905081810360008301526109a181610965565b9050919050565b60006040820190506109bd60008301856106e1565b6109ca60208301846107ee565b9392505050565b60006060820190506109e660008301866107ee565b6109f360208301856106e1565b610a0060408301846107ee565b94935050505056fea264697066735822122054682127dd28bd1903dc184d5ca0a0c57b3eadf24f964f7d02f8d5e987eac69064736f6c63430008140033",
  "linkReferences": {},
  "deployedLinkReferences": {}
}