{
  "_format": "hh-sol-artifact-1",
  "contractName": "OracleAdapter",
  "sourceName": "contracts/OracleAdapter.sol",
  "abi": [
    {
      "inputs": [],
      "stateMutability": "nonpayable",
      "type": "constructor"
    },
    {
      "inputs": [
        {
          "internalType": "address",
          "name": "owner",
          "type": "address"
        }
      ],
      "name": "OwnableInvalidOwner",
      "type": "error"
    },
    {
      "inputs": [
        {
          "internalType": "address",
          "name": "account",
          "type": "address"
        }
      ],
      "name": "OwnableUnauthorizedAccount",
      "type": "error"
    },
    {
      "anonymous": false,
      "inputs": [
        {
          "indexed": true,
          "internalType": "bytes32",
          "name": "riskId",
          "type": "bytes32"
        },
        {
          "indexed": false,
          "internalType": "uint256",
          "name": "value",
          "type": "uint256"
        },
        {
          "indexed": false,
          "internalType": "uint256",
          "name": "timestamp",
          "type": "uint256"
        }
      ],
      "name": "OracleDataSubmitted",
      "type": "event"
    },
    {
      "anonymous": false,
      "inputs": [
        {
          "indexed": true,
          "internalType": "address",
          "name": "previousOwner",
          "type": "address"
        },
        {
          "indexed": true,
          "internalType": "address",
          "name": "newOwner",
          "type": "address"
        }
      ],
      "name": "OwnershipTransferred",
      "type": "event"
    },
    {
      "inputs": [
        {
          "internalType": "bytes32",
          "name": "riskId",
          "type": "bytes32"
        },
        {
          "internalType": "uint256",
          "name": "threshold",
          "type": "uint256"
        }
      ],
      "name": "checkTrigger",
      "outputs": [
        {
          "internalType": "bool",
          "name": "",
          "type": "bool"
        }
      ],
      "stateMutability": "view",
      "type": "function"
    },
    {
      "inputs": [
        {
          "internalType": "bytes32",
          "name": "riskId",
          "type": "bytes32"
        }
      ],
      "name": "getData",
      "outputs": [
        {
          "internalType": "uint256",
          "name": "",
          "type": "uint256"
        },
        {
          "internalType": "uint256",
          "name": "",
          "type": "uint256"
        }
      ],
      "stateMutability": "view",
      "type": "function"
    },
    {
      "inputs": [
        {
          "internalType": "bytes32",
          "name": "",
          "type": "bytes32"
        }
      ],
      "name": "latestData",
      "outputs": [
        {
          "internalType": "uint256",
          "name": "",
          "type": "uint256"
        }
      ],
      "stateMutability": "view",
      "type": "function"
    },
    {
      "inputs": [
        {
          "internalType": "bytes32",
          "name": "",
          "type": "bytes32"
        }
      ],
      "name": "latestTimestamp",
      "outputs": [
        {
          "internalType": "uint256",
          "name": "",
          "type": "uint256"
        }
      ],
      "stateMutability": "view",
      "type": "function"
    },
    {
      "inputs": [],
      "name": "owner",
      "outputs": [
        {
          "internalType": "address",
          "name": "",
          "type": "address"
        }
      ],
      "stateMutability": "view",
      "type": "function"
    },
    {
      "inputs": [],
      "name": "renounceOwnership",
      "outputs": [],
      "stateMutability": "nonpayable",
      "type": "function"
    },
    {
      "inputs": [
        {
          "internalType": "bytes32",
          "name": "riskId",
          "type": "bytes32"
        },
        {
          "internalType": "uint256",
          "name": "value",
          "type": "uint256"
        }
      ],
      "name": "submitOracleData",
      "outputs": [],
      "stateMutability": "nonpayable",
      "type": "function"
    },
    {
      "inputs": [
        {
          "internalType": "address",
          "name": "newOwner",
          "type": "address"
        }
      ],
      "name": "transferOwnership",
      "outputs": [],
      "stateMutability": "nonpayable",
      "type": "function"
    }
  ],
  "bytecode": "0x608060405234801561001057600080fd5b5033600073ffffffffffffffffffffffffffffffffffffffff168173ffffffffffffffffffffffffffffffffffffffff16036100845760006040517f1e4fbdf700000000000000000000000000000000000000000000000000000000815260040161007b919061019e565b60405180910390fd5b6100938161009960201b60201c565b506101b9565b60008060009054906101000a900473ffffffffffffffffffffffffffffffffffffffff169050816000806101000a81548173ffffffffffffffffffffffffffffffffffffffff021916908373ffffffffffffffffffffffffffffffffffffffff1602179055508173ffffffffffffffffffffffffffffffffffffffff168173ffffffffffffffffffffffffffffffffffffffff167f8be0079c531659141344cd1fd0a4f28419497f9722a3daafe3b4186f6b6457e060405160405180910390a35050565b600073ffffffffffffffffffffffffffffffffffffffff82169050919050565b60006101888261015d565b9050919050565b6101988161017d565b82525050565b60006020820190506101b3600083018461018f565b92915050565b610711806101c86000396000f3fe608060405234801561001057600080fd5b50600436106100885760003560e01c80638da5cb5b1161005b5780638da5cb5b14610114578063c61abb1614610132578063de7fa6fd14610162578063f2fde38b1461019257610088565b80630b5df63b1461008d57806354f6127f146100a9578063715018a6146100da57806388d018a8146100e4575b600080fd5b6100a760048036038101906100a29190610530565b6101ae565b005b6100c360048036038101906100be9190610570565b610224565b6040516100d19291906105ac565b60405180910390f35b6100e2610258565b005b6100fe60048036038101906100f99190610530565b61026c565b60405161010b91906105f0565b60405180910390f35b61011c61028d565b604051610129919061064c565b60405180910390f35b61014c60048036038101906101479190610570565b6102b6565b6040516101599190610667565b60405180910390f35b61017c60048036038101906101779190610570565b6102ce565b6040516101899190610667565b60405180910390f35b6101ac60048036038101906101a791906106ae565b6102e6565b005b6101b661036c565b806001600084815260200190815260200160002081905550426002600084815260200190815260200160002081905550817f56c956e6f2224642c208f38fe2646751726129518f41a668b8a70a13d1d1499b82426040516102189291906105ac565b60405180910390a25050565b6000806001600084815260200190815260200160002054600260008581526020019081526020016000205491509150915091565b61026061036c565b61026a60006103f3565b565b60008160016000858152602001908152602001600020541015905092915050565b60008060009054906101000a900473ffffffffffffffffffffffffffffffffffffffff16905090565b60016020528060005260406000206000915090505481565b60026020528060005260406000206000915090505481565b6102ee61036c565b600073ffffffffffffffffffffffffffffffffffffffff168173ffffffffffffffffffffffffffffffffffffffff16036103605760006040517f1e4fbdf7000000000000000000000000000000000000000000000000000000008152600401610357919061064c565b60405180910390fd5b610369816103f3565b50565b6103746104b7565b73ffffffffffffffffffffffffffffffffffffffff1661039261028d565b73ffffffffffffffffffffffffffffffffffffffff16146103f1576103b56104b7565b6040517f118cdaa70000000000000000000000000000000000000000000000000000000081526004016103e8919061064c565b60405180910390fd5b565b60008060009054906101000a900473ffffffffffffffffffffffffffffffffffffffff169050816000806101000a81548173ffffffffffffffffffffffffffffffffffffffff021916908373ffffffffffffffffffffffffffffffffffffffff1602179055508173ffffffffffffffffffffffffffffffffffffffff168173ffffffffffffffffffffffffffffffffffffffff167f8be0079c531659141344cd1fd0a4f28419497f9722a3daafe3b4186f6b6457e060405160405180910390a35050565b600033905090565b600080fd5b6000819050919050565b6104d7816104c4565b81146104e257600080fd5b50565b6000813590506104f4816104ce565b92915050565b6000819050919050565b61050d816104fa565b811461051857600080fd5b50565b60008135905061052a81610504565b92915050565b60008060408385031215610547576105466104bf565b5b6000610555858286016104e5565b92505060206105668582860161051b565b9150509250929050565b600060208284031215610586576105856104bf565b5b6000610594848285016104e5565b91505092915050565b6105a6816104fa565b82525050565b60006040820190506105c1600083018561059d565b6105ce602083018461059d565b9392505050565b60008115159050919050565b6105ea816105d5565b82525050565b600060208201905061060560008301846105e1565b92915050565b600073ffffffffffffffffffffffffffffffffffffffff82169050919050565b60006106368261060b565b9050919050565b6106468161062b565b82525050565b6000602082019050610661600083018461063d565b92915050565b600060208201905061067c600083018461059d565b92915050565b61068b8161062b565b811461069657600080fd5b50565b6000813590506106a881610682565b92915050565b6000602082840312156106c4576106c36104bf565b5b60006106d284828501610699565b9150509291505056fea264697066735822122057cd45e1a5f77f2171647b602c2cadc33047058c2df836ae602163849adc461364736f6c63430008140033",
  "linkReferences": {},
  "deployedLinkReferences": {}
}