{
  "_format": "hh-sol-artifact-1",
  "contractName": "CoveragePolicy",
  "sourceName": "contracts/CoveragePolicy.sol",
  "abi": [
    {
      "inputs": [],
      "stateMutability": "nonpayable",
      "type": "constructor"
    },
    {
      "inputs": [
        {
          "internalType": "address",
          "name": "sender",
          "type": "address"
        },
        {
          "internalType": "uint256",
          "name": "balance",
          "type": "uint256"
        },
        {
          "internalType": "uint256",
          "name": "needed",
          "type": "uint256"
        },
        {
          "internalType": "uint256",
          "name": "tokenId",
          "type": "uint256"
        }
      ],
      "name": "ERC1155InsufficientBalance",
      "type": "error"
    },
    {
      "inputs": [
        {
          "internalType": "address",
          "name": "approver",
          "type": "address"
        }
      ],
      "name": "ERC1155InvalidApprover",
      "type": "error"
    },
    {
      "inputs": [
        {
          "internalType": "uint256",
          "name": "idsLength",
          "type": "uint256"
        },
        {
          "internalType": "uint256",
          "name": "valuesLength",
          "type": "uint256"
        }
      ],
      "name": "ERC1155InvalidArrayLength",
      "type": "error"
    },
    {
      "inputs": [
        {
          "internalType": "address",
          "name": "operator",
          "type": "address"
        }
      ],
      "name": "ERC1155InvalidOperator",
      "type": "error"
    },
    {
      "inputs": [
        {
          "internalType": "address",
          "name": "receiver",
          "type": "address"
        }
      ],
      "name": "ERC1155InvalidReceiver",
      "type": "error"
    },
    {
      "inputs": [
        {
          "internalType": "address",
          "name": "sender",
          "type": "address"
        }
      ],
      "name": "ERC1155InvalidSender",
      "type": "error"
    },
    {
      "inputs": [
        {
          "internalType": "address",
          "name": "operator",
          "type": "address"
        },
        {
          "internalType": "address",
          "name": "owner",
          "type": "address"
        }
      ],
      "name": "ERC1155MissingApprovalForAll",
      "type": "error"
    },
    {
      "inputs": [
        {
          "internalType": "address",
          "name": "owner",
          "type": "address"
        }
      ],
      "name": "OwnableInvalidOwner",
      "type": "error"
    },
    {
      "inputs": [
        {
          "internalType": "address",
          "name": "account",
          "type": "address"
        }
      ],
      "name": "OwnableUnauthorizedAccount",
      "type": "error"
    },
    {
      "anonymous": false,
      "inputs": [
        {
          "indexed": true,
          "internalType": "address",
          "name": "account",
          "type": "address"
        },
        {
          "indexed": true,
          "internalType": "address",
          "name": "operator",
          "type": "address"
        },
        {
          "indexed": false,
          "internalType": "bool",
          "name": "approved",
          "type": "bool"
        }
      ],
      "name": "ApprovalForAll",
      "type": "event"
    },
    {
      "anonymous": false,
      "inputs": [
        {
          "indexed": true,
          "internalType": "address",
          "name": "previousOwner",
          "type": "address"
        },
        {
          "indexed": true,
          "internalType": "address",
          "name": "newOwner",
          "type": "address"
        }
      ],
      "name": "OwnershipTransferred",
      "type": "event"
    },
    {
      "anonymous": false,
      "inputs": [
        {
          "indexed": true,
          "internalType": "address",
          "name": "operator",
          "type": "address"
        },
        {
          "indexed": true,
          "internalType": "address",
          "name": "from",
          "type": "address"
        },
        {
          "indexed": true,
          "internalType": "address",
          "name": "to",
          "type": "address"
        },
        {
          "indexed": false,
          "internalType": "uint256[]",
          "name": "ids",
          "type": "uint256[]"
        },
        {
          "indexed": false,
          "internalType": "uint256[]",
          "name": "values",
          "type": "uint256[]"
        }
      ],
      "name": "TransferBatch",
      "type": "event"
    },
    {
      "anonymous": false,
      "inputs": [
        {
          "indexed": true,
          "internalType": "address",
          "name": "operator",
          "type": "address"
        },
        {
          "indexed": true,
          "internalType": "address",
          "name": "from",
          "type": "address"
        },
        {
          "indexed": true,
          "internalType": "address",
          "name": "to",
          "type": "address"
        },
        {
          "indexed": false,
          "internalType": "uint256",
          "name": "id",
          "type": "uint256"
        },
        {
          "indexed": false,
          "internalType": "uint256",
          "name": "value",
          "type": "uint256"
        }
      ],
      "name": "TransferSingle",
      "type": "event"
    },
    {
      "anonymous": false,
      "inputs": [
        {
          "indexed": false,
          "internalType": "string",
          "name": "value",
          "type": "string"
        },
        {
          "indexed": true,
          "internalType": "uint256",
          "name": "id",
          "type": "uint256"
        }
      ],
      "name": "URI",
      "type": "event"
    },
    {
      "inputs": [
        {
          "internalType": "address",
          "name": "account",
          "type": "address"
        },
        {
          "internalType": "uint256",
          "name": "id",
          "type": "uint256"
        }
      ],
      "name": "balanceOf",
      "outputs": [
        {
          "internalType": "uint256",
          "name": "",
          "type": "uint256"
        }
      ],
      "stateMutability": "view",
      "type": "function"
    },
    {
      "inputs": [
        {
          "internalType": "address[]",
          "name": "accounts",
          "type": "address[]"
        },
        {
          "internalType": "uint256[]",
          "name": "ids",
          "type": "uint256[]"
        }
      ],
      "name": "balanceOfBatch",
      "outputs": [
        {
          "internalType": "uint256[]",
          "name": "",
          "type": "uint256[]"
        }
      ],
      "stateMutability": "view",
      "type": "function"
    },
    {
      "inputs": [
        {
          "internalType": "uint256",
          "name": "policyId",
          "type": "uint256"
        }
      ],
      "name": "burnPolicy",
      "outputs": [],
      "stateMutability": "nonpayable",
      "type": "function"
    },
    {
      "inputs": [
        {
          "internalType": "uint256",
          "name": "policyId",
          "type": "uint256"
        }
      ],
      "name": "getPolicyAmountInsured",
      "outputs": [
        {
          "internalType": "uint256",
          "name": "",
          "type": "uint256"
        }
      ],
      "stateMutability": "view",
      "type": "function"
    },
    {
      "inputs": [
        {
          "internalType": "address",
          "name": "account",
          "type": "address"
        },
        {
          "internalType": "address",
          "name": "operator",
          "type": "address"
        }
      ],
      "name": "isApprovedForAll",
      "outputs": [
        {
          "internalType": "bool",
          "name": "",
          "type": "bool"
        }
      ],
      "stateMutability": "view",
      "type": "function"
    },
    {
      "inputs": [
        {
          "internalType": "uint256",
          "name": "policyId",
          "type": "uint256"
        }
      ],
      "name": "isPolicyActive",
      "outputs": [
        {
          "internalType": "bool",
          "name": "",
          "type": "bool"
        }
      ],
      "stateMutability": "view",
      "type": "function"
    },
    {
      "inputs": [
        {
          "internalType": "address",
          "name": "to",
          "type": "address"
        },
        {
          "internalType": "uint256",
          "name": "riskId",
          "type": "uint256"
        },
        {
          "internalType": "uint256",
          "name": "amountInsured",
          "type": "uint256"
        },
        {
          "internalType": "uint256",
          "name": "termDuration",
          "type": "uint256"
        },
        {
          "internalType": "uint256",
          "name": "premiumPaid",
          "type": "uint256"
        }
      ],
      "name": "mintPolicy",
      "outputs": [
        {
          "internalType": "uint256",
          "name": "",
          "type": "uint256"
        }
      ],
      "stateMutability": "nonpayable",
      "type": "function"
    },
    {
      "inputs": [],
      "name": "nextPolicyId",
      "outputs": [
        {
          "internalType": "uint256",
          "name": "",
          "type": "uint256"
        }
      ],
      "stateMutability": "view",
      "type": "function"
    },
    {
      "inputs": [],
      "name": "owner",
      "outputs": [
        {
          "internalType": "address",
          "name": "",
          "type": "address"
        }
      ],
      "stateMutability": "view",
      "type": "function"
    },
    {
      "inputs": [
        {
          "internalType": "uint256",
          "name": "",
          "type": "uint256"
        }
      ],
      "name": "policies",
      "outputs": [
        {
          "internalType": "uint256",
          "name": "riskId",
          "type": "uint256"
        },
        {
          "internalType": "uint256",
          "name": "amountInsured",
          "type": "uint256"
        },
        {
          "internalType": "uint256",
          "name": "termEnd",
          "type": "uint256"
        },
        {
          "internalType": "uint256",
          "name": "premiumPaid",
          "type": "uint256"
        },
        {
          "internalType": "bool",
          "name": "active",
          "type": "bool"
        }
      ],
      "stateMutability": "view",
      "type": "function"
    },
    {
      "inputs": [],
      "name": "renounceOwnership",
      "outputs": [],
      "stateMutability": "nonpayable",
      "type": "function"
    },
    {
      "inputs": [
        {
          "internalType": "address",
          "name": "from",
          "type": "address"
        },
        {
          "internalType": "address",
          "name": "to",
          "type": "address"
        },
        {
          "internalType": "uint256[]",
          "name": "ids",
          "type": "uint256[]"
        },
        {
          "internalType": "uint256[]",
          "name": "values",
          "type": "uint256[]"
        },
        {
          "internalType": "bytes",
          "name": "data",
          "type": "bytes"
        }
      ],
      "name": "safeBatchTransferFrom",
      "outputs": [],
      "stateMutability": "nonpayable",
      "type": "function"
    },
    {
      "inputs": [
        {
          "internalType": "address",
          "name": "from",
          "type": "address"
        },
        {
          "internalType": "address",
          "name": "to",
          "type": "address"
        },
        {
          "internalType": "uint256",
          "name": "id",
          "type": "uint256"
        },
        {
          "internalType": "uint256",
          "name": "value",
          "type": "uint256"
        },
        {
          "internalType": "bytes",
          "name": "data",
          "type": "bytes"
        }
      ],
      "name": "safeTransferFrom",
      "outputs": [],
      "stateMutability": "nonpayable",
      "type": "function"
    },
    {
      "inputs": [
        {
          "internalType": "address",
          "name": "operator",
          "type": "address"
        },
        {
          "internalType": "bool",
          "name": "approved",
          "type": "bool"
        }
      ],
      "name": "setApprovalForAll",
      "outputs": [],
      "stateMutability": "nonpayable",
      "type": "function"
    },
    {
      "inputs": [
        {
          "internalType": "bytes4",
          "name": "interfaceId",
          "type": "bytes4"
        }
      ],
      "name": "supportsInterface",
      "outputs": [
        {
          "internalType": "bool",
          "name": "",
          "type": "bool"
        }
      ],
      "stateMutability": "view",
      "type": "function"
    },
    {
      "inputs": [
        {
          "internalType": "address",
          "name": "newOwner",
          "type": "address"
        }
      ],
      "name": "transferOwnership",
      "outputs": [],
      "stateMutability": "nonpayable",
      "type": "function"
    },
    {
      "inputs": [
        {
          "internalType": "uint256",
          "name": "policyId",
          "type": "uint256"
        }
      ],
      "name": "uri",
      "outputs": [
        {
          "internalType": "string",
          "name": "",
          "type": "string"
        }
      ],
      "stateMutability": "view",
      "type": "function"
    }
  ],
  "bytecode": "0x60806040523480156200001157600080fd5b50336040518060600160405280602a815260200162002dd1602a91396200003e81620000cc60201b60201c565b50600073ffffffffffffffffffffffffffffffffffffffff168173ffffffffffffffffffffffffffffffffffffffff1603620000b45760006040517f1e4fbdf7000000000000000000000000000000000000000000000000000000008152600401620000ab9190620001ec565b60405180910390fd5b620000c581620000e160201b60201c565b506200056a565b8060029081620000dd919062000483565b5050565b6000600360009054906101000a900473ffffffffffffffffffffffffffffffffffffffff16905081600360006101000a81548173ffffffffffffffffffffffffffffffffffffffff021916908373ffffffffffffffffffffffffffffffffffffffff1602179055508173ffffffffffffffffffffffffffffffffffffffff168173ffffffffffffffffffffffffffffffffffffffff167f8be0079c531659141344cd1fd0a4f28419497f9722a3daafe3b4186f6b6457e060405160405180910390a35050565b600073ffffffffffffffffffffffffffffffffffffffff82169050919050565b6000620001d482620001a7565b9050919050565b620001e681620001c7565b82525050565b6000602082019050620002036000830184620001db565b92915050565b600081519050919050565b7f4e487b7100000000000000000000000000000000000000000000000000000000600052604160045260246000fd5b7f4e487b7100000000000000000000000000000000000000000000000000000000600052602260045260246000fd5b600060028204905060018216806200028b57607f821691505b602082108103620002a157620002a062000243565b5b50919050565b60008190508160005260206000209050919050565b60006020601f8301049050919050565b600082821b905092915050565b6000600883026200030b7fffffffffffffffffffffffffffffffffffffffffffffffffffffffffffffffff82620002cc565b620003178683620002cc565b95508019841693508086168417925050509392505050565b6000819050919050565b6000819050919050565b6000620003646200035e62000358846200032f565b62000339565b6200032f565b9050919050565b6000819050919050565b620003808362000343565b620003986200038f826200036b565b848454620002d9565b825550505050565b600090565b620003af620003a0565b620003bc81848462000375565b505050565b5b81811015620003e457620003d8600082620003a5565b600181019050620003c2565b5050565b601f8211156200043357620003fd81620002a7565b6200040884620002bc565b8101602085101562000418578190505b620004306200042785620002bc565b830182620003c1565b50505b505050565b600082821c905092915050565b6000620004586000198460080262000438565b1980831691505092915050565b600062000473838362000445565b9150826002028217905092915050565b6200048e8262000209565b67ffffffffffffffff811115620004aa57620004a962000214565b5b620004b6825462000272565b620004c3828285620003e8565b600060209050601f831160018114620004fb5760008415620004e6578287015190505b620004f2858262000465565b86555062000562565b601f1984166200050b86620002a7565b60005b8281101562000535578489015182556001820191506020850194506020810190506200050e565b8683101562000555578489015162000551601f89168262000445565b8355505b6001600288020188555050505b505050505050565b612857806200057a6000396000f3fe608060405234801561001057600080fd5b506004361061010a5760003560e01c8063a22cb465116100a2578063e0ec77b511610071578063e0ec77b5146102e1578063e985e9c514610311578063f242432a14610341578063f2fde38b1461035d578063f457a0fe146103795761010a565b8063a22cb46514610243578063bd8afa461461025f578063cad0b8db1461028f578063d3e89483146102ad5761010a565b80632eb2c2d6116100de5780632eb2c2d6146101cf5780634e1273f4146101eb578063715018a61461021b5780638da5cb5b146102255761010a565b8062fdd58e1461010f57806301ffc9a71461013f5780630e89341c1461016f5780631f6c860b1461019f575b600080fd5b61012960048036038101906101249190611b01565b610395565b6040516101369190611b50565b60405180910390f35b61015960048036038101906101549190611bc3565b6103ef565b6040516101669190611c0b565b60405180910390f35b61018960048036038101906101849190611c26565b6104d1565b6040516101969190611ce3565b60405180910390f35b6101b960048036038101906101b49190611d05565b610546565b6040516101c69190611b50565b60405180910390f35b6101e960048036038101906101e49190611f7d565b610627565b005b6102056004803603810190610200919061210f565b6106cf565b6040516102129190612245565b60405180910390f35b6102236107de565b005b61022d6107f2565b60405161023a9190612276565b60405180910390f35b61025d600480360381019061025891906122bd565b61081c565b005b61027960048036038101906102749190611c26565b610832565b6040516102869190611c0b565b60405180910390f35b61029761085f565b6040516102a49190611b50565b60405180910390f35b6102c760048036038101906102c29190611c26565b610865565b6040516102d89594939291906122fd565b60405180910390f35b6102fb60048036038101906102f69190611c26565b6108a8565b6040516103089190611b50565b60405180910390f35b61032b60048036038101906103269190612350565b6108c8565b6040516103389190611c0b565b60405180910390f35b61035b60048036038101906103569190612390565b61095c565b005b61037760048036038101906103729190612427565b610a04565b005b610393600480360381019061038e9190611c26565b610a8a565b005b600080600083815260200190815260200160002060008473ffffffffffffffffffffffffffffffffffffffff1673ffffffffffffffffffffffffffffffffffffffff16815260200190815260200160002054905092915050565b60007fd9b67a26000000000000000000000000000000000000000000000000000000007bffffffffffffffffffffffffffffffffffffffffffffffffffffffff1916827bffffffffffffffffffffffffffffffffffffffffffffffffffffffff191614806104ba57507f0e89341c000000000000000000000000000000000000000000000000000000007bffffffffffffffffffffffffffffffffffffffffffffffffffffffff1916827bffffffffffffffffffffffffffffffffffffffffffffffffffffffff1916145b806104ca57506104c982610b33565b5b9050919050565b60606005600083815260200190815260200160002060040160009054906101000a900460ff16610536576040517f08c379a000000000000000000000000000000000000000000000000000000000815260040161052d906124a0565b60405180910390fd5b61053f82610b9d565b9050919050565b6000610550610c31565b600060046000815480929190610565906124ef565b9190505590506040518060a00160405280878152602001868152602001854261058e9190612537565b815260200184815260200160011515815250600560008381526020019081526020016000206000820151816000015560208201518160010155604082015181600201556060820151816003015560808201518160040160006101000a81548160ff02191690831515021790555090505061061a8782600160405180602001604052806000815250610cb8565b8091505095945050505050565b6000610631610d51565b90508073ffffffffffffffffffffffffffffffffffffffff168673ffffffffffffffffffffffffffffffffffffffff1614158015610676575061067486826108c8565b155b156106ba5780866040517fe237d9220000000000000000000000000000000000000000000000000000000081526004016106b192919061256b565b60405180910390fd5b6106c78686868686610d59565b505050505050565b6060815183511461071b57815183516040517f5b059991000000000000000000000000000000000000000000000000000000008152600401610712929190612594565b60405180910390fd5b6000835167ffffffffffffffff81111561073857610737611d85565b5b6040519080825280602002602001820160405280156107665781602001602082028036833780820191505090505b50905060005b84518110156107d3576107a361078b8287610e5190919063ffffffff16565b61079e8387610e6590919063ffffffff16565b610395565b8282815181106107b6576107b56125bd565b5b602002602001018181525050806107cc906124ef565b905061076c565b508091505092915050565b6107e6610c31565b6107f06000610e79565b565b6000600360009054906101000a900473ffffffffffffffffffffffffffffffffffffffff16905090565b61082e610827610d51565b8383610f3f565b5050565b60006005600083815260200190815260200160002060040160009054906101000a900460ff169050919050565b60045481565b60056020528060005260406000206000915090508060000154908060010154908060020154908060030154908060040160009054906101000a900460ff16905085565b600060056000838152602001908152602001600020600101549050919050565b6000600160008473ffffffffffffffffffffffffffffffffffffffff1673ffffffffffffffffffffffffffffffffffffffff16815260200190815260200160002060008373ffffffffffffffffffffffffffffffffffffffff1673ffffffffffffffffffffffffffffffffffffffff16815260200190815260200160002060009054906101000a900460ff16905092915050565b6000610966610d51565b90508073ffffffffffffffffffffffffffffffffffffffff168673ffffffffffffffffffffffffffffffffffffffff16141580156109ab57506109a986826108c8565b155b156109ef5780866040517fe237d9220000000000000000000000000000000000000000000000000000000081526004016109e692919061256b565b60405180910390fd5b6109fc86868686866110af565b505050505050565b610a0c610c31565b600073ffffffffffffffffffffffffffffffffffffffff168173ffffffffffffffffffffffffffffffffffffffff1603610a7e5760006040517f1e4fbdf7000000000000000000000000000000000000000000000000000000008152600401610a759190612276565b60405180910390fd5b610a8781610e79565b50565b610a92610c31565b6005600082815260200190815260200160002060040160009054906101000a900460ff16610af5576040517f08c379a0000000000000000000000000000000000000000000000000000000008152600401610aec906124a0565b60405180910390fd5b60006005600083815260200190815260200160002060040160006101000a81548160ff021916908315150217905550610b30338260016111ba565b50565b60007f01ffc9a7000000000000000000000000000000000000000000000000000000007bffffffffffffffffffffffffffffffffffffffffffffffffffffffff1916827bffffffffffffffffffffffffffffffffffffffffffffffffffffffff1916149050919050565b606060028054610bac9061261b565b80601f0160208091040260200160405190810160405280929190818152602001828054610bd89061261b565b8015610c255780601f10610bfa57610100808354040283529160200191610c25565b820191906000526020600020905b815481529060010190602001808311610c0857829003601f168201915b50505050509050919050565b610c39610d51565b73ffffffffffffffffffffffffffffffffffffffff16610c576107f2565b73ffffffffffffffffffffffffffffffffffffffff1614610cb657610c7a610d51565b6040517f118cdaa7000000000000000000000000000000000000000000000000000000008152600401610cad9190612276565b60405180910390fd5b565b600073ffffffffffffffffffffffffffffffffffffffff168473ffffffffffffffffffffffffffffffffffffffff1603610d2a5760006040517f57f447ce000000000000000000000000000000000000000000000000000000008152600401610d219190612276565b60405180910390fd5b600080610d378585611261565b91509150610d49600087848487611291565b505050505050565b600033905090565b600073ffffffffffffffffffffffffffffffffffffffff168473ffffffffffffffffffffffffffffffffffffffff1603610dcb5760006040517f57f447ce000000000000000000000000000000000000000000000000000000008152600401610dc29190612276565b60405180910390fd5b600073ffffffffffffffffffffffffffffffffffffffff168573ffffffffffffffffffffffffffffffffffffffff1603610e3d5760006040517f01a83514000000000000000000000000000000000000000000000000000000008152600401610e349190612276565b60405180910390fd5b610e4a8585858585611291565b5050505050565b600060208202602084010151905092915050565b600060208202602084010151905092915050565b6000600360009054906101000a900473ffffffffffffffffffffffffffffffffffffffff16905081600360006101000a81548173ffffffffffffffffffffffffffffffffffffffff021916908373ffffffffffffffffffffffffffffffffffffffff1602179055508173ffffffffffffffffffffffffffffffffffffffff168173ffffffffffffffffffffffffffffffffffffffff167f8be0079c531659141344cd1fd0a4f28419497f9722a3daafe3b4186f6b6457e060405160405180910390a35050565b600073ffffffffffffffffffffffffffffffffffffffff168273ffffffffffffffffffffffffffffffffffffffff1603610fb15760006040517fced3e100000000000000000000000000000000000000000000000000000000008152600401610fa89190612276565b60405180910390fd5b80600160008573ffffffffffffffffffffffffffffffffffffffff1673ffffffffffffffffffffffffffffffffffffffff16815260200190815260200160002060008473ffffffffffffffffffffffffffffffffffffffff1673ffffffffffffffffffffffffffffffffffffffff16815260200190815260200160002060006101000a81548160ff0219169083151502179055508173ffffffffffffffffffffffffffffffffffffffff168373ffffffffffffffffffffffffffffffffffffffff167f17307eab39ab6107e8899845ad3d59bd9653f200f220920489ca2b5937696c31836040516110a29190611c0b565b60405180910390a3505050565b600073ffffffffffffffffffffffffffffffffffffffff168473ffffffffffffffffffffffffffffffffffffffff16036111215760006040517f57f447ce0000000000000000000000000000000000000000000000000000000081526004016111189190612276565b60405180910390fd5b600073ffffffffffffffffffffffffffffffffffffffff168573ffffffffffffffffffffffffffffffffffffffff16036111935760006040517f01a8351400000000000000000000000000000000000000000000000000000000815260040161118a9190612276565b60405180910390fd5b6000806111a08585611261565b915091506111b18787848487611291565b50505050505050565b600073ffffffffffffffffffffffffffffffffffffffff168373ffffffffffffffffffffffffffffffffffffffff160361122c5760006040517f01a835140000000000000000000000000000000000000000000000000000000081526004016112239190612276565b60405180910390fd5b6000806112398484611261565b9150915061125a856000848460405180602001604052806000815250611291565b5050505050565b60608060405191506001825283602083015260408201905060018152826020820152604081016040529250929050565b61129d85858585611343565b600073ffffffffffffffffffffffffffffffffffffffff168473ffffffffffffffffffffffffffffffffffffffff161461133c5760006112db610d51565b9050600184510361132b5760006112fc600086610e6590919063ffffffff16565b90506000611314600086610e6590919063ffffffff16565b90506113248389898585896116f1565b505061133a565b6113398187878787876118a5565b5b505b5050505050565b805182511461138d57815181516040517f5b059991000000000000000000000000000000000000000000000000000000008152600401611384929190612594565b60405180910390fd5b6000611397610d51565b905060005b83518110156115ac5760006113ba8286610e6590919063ffffffff16565b905060006113d18386610e6590919063ffffffff16565b9050600073ffffffffffffffffffffffffffffffffffffffff168873ffffffffffffffffffffffffffffffffffffffff16146114fe57600080600084815260200190815260200160002060008a73ffffffffffffffffffffffffffffffffffffffff1673ffffffffffffffffffffffffffffffffffffffff168152602001908152602001600020549050818110156114a657888183856040517f03dee4c500000000000000000000000000000000000000000000000000000000815260040161149d949392919061264c565b60405180910390fd5b81810360008085815260200190815260200160002060008b73ffffffffffffffffffffffffffffffffffffffff1673ffffffffffffffffffffffffffffffffffffffff16815260200190815260200160002081905550505b600073ffffffffffffffffffffffffffffffffffffffff168773ffffffffffffffffffffffffffffffffffffffff1614611599578060008084815260200190815260200160002060008973ffffffffffffffffffffffffffffffffffffffff1673ffffffffffffffffffffffffffffffffffffffff16815260200190815260200160002060008282546115919190612537565b925050819055505b5050806115a5906124ef565b905061139c565b50600183510361166b5760006115cc600085610e6590919063ffffffff16565b905060006115e4600085610e6590919063ffffffff16565b90508573ffffffffffffffffffffffffffffffffffffffff168773ffffffffffffffffffffffffffffffffffffffff168473ffffffffffffffffffffffffffffffffffffffff167fc3d58168c5ae7397731d063d5bbf3d657854427343f4c083240f7aacaa2d0f62858560405161165c929190612594565b60405180910390a450506116ea565b8373ffffffffffffffffffffffffffffffffffffffff168573ffffffffffffffffffffffffffffffffffffffff168273ffffffffffffffffffffffffffffffffffffffff167f4a39dc06d4c0dbc64b70af90fd698a233a518aa5d07e595d983b8c0526c8f7fb86866040516116e1929190612691565b60405180910390a45b5050505050565b60008473ffffffffffffffffffffffffffffffffffffffff163b111561189d578373ffffffffffffffffffffffffffffffffffffffff1663f23a6e6187878686866040518663ffffffff1660e01b815260040161175295949392919061271d565b6020604051808303816000875af192505050801561178e57506040513d601f19601f8201168201806040525081019061178b919061278c565b60015b611812573d80600081146117be576040519150601f19603f3d011682016040523d82523d6000602084013e6117c3565b606091505b50600081510361180a57846040517f57f447ce0000000000000000000000000000000000000000000000000000000081526004016118019190612276565b60405180910390fd5b805160208201fd5b63f23a6e6160e01b7bffffffffffffffffffffffffffffffffffffffffffffffffffffffff1916817bffffffffffffffffffffffffffffffffffffffffffffffffffffffff19161461189b57846040517f57f447ce0000000000000000000000000000000000000000000000000000000081526004016118929190612276565b60405180910390fd5b505b505050505050565b60008473ffffffffffffffffffffffffffffffffffffffff163b1115611a51578373ffffffffffffffffffffffffffffffffffffffff1663bc197c8187878686866040518663ffffffff1660e01b81526004016119069594939291906127b9565b6020604051808303816000875af192505050801561194257506040513d601f19601f8201168201806040525081019061193f919061278c565b60015b6119c6573d8060008114611972576040519150601f19603f3d011682016040523d82523d6000602084013e611977565b606091505b5060008151036119be57846040517f57f447ce0000000000000000000000000000000000000000000000000000000081526004016119b59190612276565b60405180910390fd5b805160208201fd5b63bc197c8160e01b7bffffffffffffffffffffffffffffffffffffffffffffffffffffffff1916817bffffffffffffffffffffffffffffffffffffffffffffffffffffffff191614611a4f57846040517f57f447ce000000000000000000000000000000000000000000000000000000008152600401611a469190612276565b60405180910390fd5b505b505050505050565b6000604051905090565b600080fd5b600080fd5b600073ffffffffffffffffffffffffffffffffffffffff82169050919050565b6000611a9882611a6d565b9050919050565b611aa881611a8d565b8114611ab357600080fd5b50565b600081359050611ac581611a9f565b92915050565b6000819050919050565b611ade81611acb565b8114611ae957600080fd5b50565b600081359050611afb81611ad5565b92915050565b60008060408385031215611b1857611b17611a63565b5b6000611b2685828601611ab6565b9250506020611b3785828601611aec565b9150509250929050565b611b4a81611acb565b82525050565b6000602082019050611b656000830184611b41565b92915050565b60007fffffffff0000000000000000000000000000000000000000000000000000000082169050919050565b611ba081611b6b565b8114611bab57600080fd5b50565b600081359050611bbd81611b97565b92915050565b600060208284031215611bd957611bd8611a63565b5b6000611be784828501611bae565b91505092915050565b60008115159050919050565b611c0581611bf0565b82525050565b6000602082019050611c206000830184611bfc565b92915050565b600060208284031215611c3c57611c3b611a63565b5b6000611c4a84828501611aec565b91505092915050565b600081519050919050565b600082825260208201905092915050565b60005b83811015611c8d578082015181840152602081019050611c72565b60008484015250505050565b6000601f19601f8301169050919050565b6000611cb582611c53565b611cbf8185611c5e565b9350611ccf818560208601611c6f565b611cd881611c99565b840191505092915050565b60006020820190508181036000830152611cfd8184611caa565b905092915050565b600080600080600060a08688031215611d2157611d20611a63565b5b6000611d2f88828901611ab6565b9550506020611d4088828901611aec565b9450506040611d5188828901611aec565b9350506060611d6288828901611aec565b9250506080611d7388828901611aec565b9150509295509295909350565b600080fd5b7f4e487b7100000000000000000000000000000000000000000000000000000000600052604160045260246000fd5b611dbd82611c99565b810181811067ffffffffffffffff82111715611ddc57611ddb611d85565b5b80604052505050565b6000611def611a59565b9050611dfb8282611db4565b919050565b600067ffffffffffffffff821115611e1b57611e1a611d85565b5b602082029050602081019050919050565b600080fd5b6000611e44611e3f84611e00565b611de5565b90508083825260208201905060208402830185811115611e6757611e66611e2c565b5b835b81811015611e905780611e7c8882611aec565b845260208401935050602081019050611e69565b5050509392505050565b600082601f830112611eaf57611eae611d80565b5b8135611ebf848260208601611e31565b91505092915050565b600080fd5b600067ffffffffffffffff821115611ee857611ee7611d85565b5b611ef182611c99565b9050602081019050919050565b82818337600083830152505050565b6000611f20611f1b84611ecd565b611de5565b905082815260208101848484011115611f3c57611f3b611ec8565b5b611f47848285611efe565b509392505050565b600082601f830112611f6457611f63611d80565b5b8135611f74848260208601611f0d565b91505092915050565b600080600080600060a08688031215611f9957611f98611a63565b5b6000611fa788828901611ab6565b9550506020611fb888828901611ab6565b945050604086013567ffffffffffffffff811115611fd957611fd8611a68565b5b611fe588828901611e9a565b935050606086013567ffffffffffffffff81111561200657612005611a68565b5b61201288828901611e9a565b925050608086013567ffffffffffffffff81111561203357612032611a68565b5b61203f88828901611f4f565b9150509295509295909350565b600067ffffffffffffffff82111561206757612066611d85565b5b602082029050602081019050919050565b600061208b6120868461204c565b611de5565b905080838252602082019050602084028301858111156120ae576120ad611e2c565b5b835b818110156120d757806120c38882611ab6565b8452602084019350506020810190506120b0565b5050509392505050565b600082601f8301126120f6576120f5611d80565b5b8135612106848260208601612078565b91505092915050565b6000806040838503121561212657612125611a63565b5b600083013567ffffffffffffffff81111561214457612143611a68565b5b612150858286016120e1565b925050602083013567ffffffffffffffff81111561217157612170611a68565b5b61217d85828601611e9a565b9150509250929050565b600081519050919050565b600082825260208201905092915050565b6000819050602082019050919050565b6121bc81611acb565b82525050565b60006121ce83836121b3565b60208301905092915050565b6000602082019050919050565b60006121f282612187565b6121fc8185612192565b9350612207836121a3565b8060005b8381101561223857815161221f88826121c2565b975061222a836121da565b92505060018101905061220b565b5085935050505092915050565b6000602082019050818103600083015261225f81846121e7565b905092915050565b61227081611a8d565b82525050565b600060208201905061228b6000830184612267565b92915050565b61229a81611bf0565b81146122a557600080fd5b50565b6000813590506122b781612291565b92915050565b600080604083850312156122d4576122d3611a63565b5b60006122e285828601611ab6565b92505060206122f3858286016122a8565b9150509250929050565b600060a0820190506123126000830188611b41565b61231f6020830187611b41565b61232c6040830186611b41565b6123396060830185611b41565b6123466080830184611bfc565b9695505050505050565b6000806040838503121561236757612366611a63565b5b600061237585828601611ab6565b925050602061238685828601611ab6565b9150509250929050565b600080600080600060a086880312156123ac576123ab611a63565b5b60006123ba88828901611ab6565b95505060206123cb88828901611ab6565b94505060406123dc88828901611aec565b93505060606123ed88828901611aec565b925050608086013567ffffffffffffffff81111561240e5761240d611a68565b5b61241a88828901611f4f565b9150509295509295909350565b60006020828403121561243d5761243c611a63565b5b600061244b84828501611ab6565b91505092915050565b7f506f6c69637920696e6163746976650000000000000000000000000000000000600082015250565b600061248a600f83611c5e565b915061249582612454565b602082019050919050565b600060208201905081810360008301526124b98161247d565b9050919050565b7f4e487b7100000000000000000000000000000000000000000000000000000000600052601160045260246000fd5b60006124fa82611acb565b91507fffffffffffffffffffffffffffffffffffffffffffffffffffffffffffffffff820361252c5761252b6124c0565b5b600182019050919050565b600061254282611acb565b915061254d83611acb565b9250828201905080821115612565576125646124c0565b5b92915050565b60006040820190506125806000830185612267565b61258d6020830184612267565b9392505050565b60006040820190506125a96000830185611b41565b6125b66020830184611b41565b9392505050565b7f4e487b7100000000000000000000000000000000000000000000000000000000600052603260045260246000fd5b7f4e487b7100000000000000000000000000000000000000000000000000000000600052602260045260246000fd5b6000600282049050600182168061263357607f821691505b602082108103612646576126456125ec565b5b50919050565b60006080820190506126616000830187612267565b61266e6020830186611b41565b61267b6040830185611b41565b6126886060830184611b41565b95945050505050565b600060408201905081810360008301526126ab81856121e7565b905081810360208301526126bf81846121e7565b90509392505050565b600081519050919050565b600082825260208201905092915050565b60006126ef826126c8565b6126f981856126d3565b9350612709818560208601611c6f565b61271281611c99565b840191505092915050565b600060a0820190506127326000830188612267565b61273f6020830187612267565b61274c6040830186611b41565b6127596060830185611b41565b818103608083015261276b81846126e4565b90509695505050505050565b60008151905061278681611b97565b92915050565b6000602082840312156127a2576127a1611a63565b5b60006127b084828501612777565b91505092915050565b600060a0820190506127ce6000830188612267565b6127db6020830187612267565b81810360408301526127ed81866121e7565b9050818103606083015261280181856121e7565b9050818103608083015261281581846126e4565b9050969550505050505056fea2646970667358221220a9bc026ee5b5f75ef71d57327b0fca7dcc6d167f595a4d99f8d0142b48f802e664736f6c6343000814003368747470733a2f2f6170692e6578616d706c652e636f6d2f6d657461646174612f7b69647d2e6a736f6e",
  "linkReferences": {},
  "deployedLinkReferences": {}
}